{
  "_format": "hh-sol-artifact-1",
  "contractName": "Ecommerce",
  "sourceName": "contracts/Ecommerce.sol",
  "abi": [
    {
      "inputs": [],
      "stateMutability": "nonpayable",
      "type": "constructor"
    },
    {
      "anonymous": false,
      "inputs": [
        {
          "indexed": true,
          "internalType": "uint256",
          "name": "orderId",
          "type": "uint256"
        },
        {
          "indexed": true,
          "internalType": "address",
          "name": "buyer",
          "type": "address"
        },
        {
          "indexed": false,
          "internalType": "uint256",
          "name": "totalAmount",
          "type": "uint256"
        }
      ],
      "name": "OrderCreated",
      "type": "event"
    },
    {
      "anonymous": false,
      "inputs": [
        {
          "indexed": true,
          "internalType": "uint256",
          "name": "orderId",
          "type": "uint256"
        },
        {
          "indexed": false,
          "internalType": "enum Ecommerce.OrderStatus",
          "name": "status",
          "type": "uint8"
        }
      ],
      "name": "OrderStatusChanged",
      "type": "event"
    },
    {
      "anonymous": false,
      "inputs": [
        {
          "indexed": true,
          "internalType": "address",
          "name": "previousOwner",
          "type": "address"
        },
        {
          "indexed": true,
          "internalType": "address",
          "name": "newOwner",
          "type": "address"
        }
      ],
      "name": "OwnershipTransferred",
      "type": "event"
    },
    {
      "anonymous": false,
      "inputs": [
        {
          "indexed": true,
          "internalType": "uint256",
          "name": "orderId",
          "type": "uint256"
        },
        {
          "indexed": true,
          "internalType": "address",
          "name": "seller",
          "type": "address"
        },
        {
          "indexed": false,
          "internalType": "uint256",
          "name": "amount",
          "type": "uint256"
        }
      ],
      "name": "PaymentReleased",
      "type": "event"
    },
    {
      "anonymous": false,
      "inputs": [
        {
          "indexed": true,
          "internalType": "uint256",
          "name": "productId",
          "type": "uint256"
        },
        {
          "indexed": false,
          "internalType": "string",
          "name": "name",
          "type": "string"
        },
        {
          "indexed": false,
          "internalType": "uint256",
          "name": "price",
          "type": "uint256"
        }
      ],
      "name": "ProductCreated",
      "type": "event"
    },
    {
      "anonymous": false,
      "inputs": [
        {
          "indexed": true,
          "internalType": "uint256",
          "name": "productId",
          "type": "uint256"
        },
        {
          "indexed": false,
          "internalType": "string",
          "name": "name",
          "type": "string"
        },
        {
          "indexed": false,
          "internalType": "uint256",
          "name": "price",
          "type": "uint256"
        }
      ],
      "name": "ProductUpdated",
      "type": "event"
    },
    {
      "anonymous": false,
      "inputs": [
        {
          "indexed": true,
          "internalType": "uint256",
          "name": "orderId",
          "type": "uint256"
        },
        {
          "indexed": true,
          "internalType": "address",
          "name": "buyer",
          "type": "address"
        },
        {
          "indexed": false,
          "internalType": "uint256",
          "name": "amount",
          "type": "uint256"
        }
      ],
      "name": "RefundIssued",
      "type": "event"
    },
    {
      "anonymous": false,
      "inputs": [
        {
          "indexed": true,
          "internalType": "address",
          "name": "seller",
          "type": "address"
        },
        {
          "indexed": false,
          "internalType": "string",
          "name": "name",
          "type": "string"
        }
      ],
      "name": "SellerRegistered",
      "type": "event"
    },
    {
      "inputs": [
        {
          "internalType": "address",
          "name": "",
          "type": "address"
        }
      ],
      "name": "balances",
      "outputs": [
        {
          "internalType": "uint256",
          "name": "",
          "type": "uint256"
        }
      ],
      "stateMutability": "view",
      "type": "function"
    },
    {
      "inputs": [
        {
          "internalType": "address",
          "name": "",
          "type": "address"
        },
        {
          "internalType": "uint256",
          "name": "",
          "type": "uint256"
        }
      ],
      "name": "buyerOrders",
      "outputs": [
        {
          "internalType": "uint256",
          "name": "",
          "type": "uint256"
        }
      ],
      "stateMutability": "view",
      "type": "function"
    },
    {
      "inputs": [
        {
          "internalType": "uint256",
          "name": "productId",
          "type": "uint256"
        },
        {
          "internalType": "uint256",
          "name": "quantity",
          "type": "uint256"
        }
      ],
      "name": "createOrder",
      "outputs": [],
      "stateMutability": "payable",
      "type": "function"
    },
    {
      "inputs": [
        {
          "internalType": "string",
          "name": "name",
          "type": "string"
        },
        {
          "internalType": "string",
          "name": "description",
          "type": "string"
        },
        {
          "internalType": "uint256",
          "name": "price",
          "type": "uint256"
        },
        {
          "internalType": "uint256",
          "name": "stock",
          "type": "uint256"
        }
      ],
      "name": "createProduct",
      "outputs": [],
      "stateMutability": "nonpayable",
      "type": "function"
    },
    {
      "inputs": [],
      "name": "getBuyerOrders",
      "outputs": [
        {
          "internalType": "uint256[]",
          "name": "",
          "type": "uint256[]"
        }
      ],
      "stateMutability": "view",
      "type": "function"
    },
    {
      "inputs": [
        {
          "internalType": "uint256",
          "name": "orderId",
          "type": "uint256"
        }
      ],
      "name": "getOrder",
      "outputs": [
        {
          "internalType": "uint256",
          "name": "id",
          "type": "uint256"
        },
        {
          "internalType": "uint256",
          "name": "productId",
          "type": "uint256"
        },
        {
          "internalType": "uint256",
          "name": "quantity",
          "type": "uint256"
        },
        {
          "internalType": "uint256",
          "name": "totalAmount",
          "type": "uint256"
        },
        {
          "internalType": "address",
          "name": "buyer",
          "type": "address"
        },
        {
          "internalType": "address",
          "name": "seller",
          "type": "address"
        },
        {
          "internalType": "enum Ecommerce.OrderStatus",
          "name": "status",
          "type": "uint8"
        },
        {
          "internalType": "uint256",
          "name": "createdAt",
          "type": "uint256"
        },
        {
          "internalType": "uint256",
          "name": "updatedAt",
          "type": "uint256"
        }
      ],
      "stateMutability": "view",
      "type": "function"
    },
    {
      "inputs": [
        {
          "internalType": "uint256",
          "name": "productId",
          "type": "uint256"
        }
      ],
      "name": "getProduct",
      "outputs": [
        {
          "internalType": "uint256",
          "name": "id",
          "type": "uint256"
        },
        {
          "internalType": "string",
          "name": "name",
          "type": "string"
        },
        {
          "internalType": "string",
          "name": "description",
          "type": "string"
        },
        {
          "internalType": "uint256",
          "name": "price",
          "type": "uint256"
        },
        {
          "internalType": "uint256",
          "name": "stock",
          "type": "uint256"
        },
        {
          "internalType": "address",
          "name": "seller",
          "type": "address"
        },
        {
          "internalType": "bool",
          "name": "isActive",
          "type": "bool"
        }
      ],
      "stateMutability": "view",
      "type": "function"
    },
    {
      "inputs": [],
      "name": "getSellerOrders",
      "outputs": [
        {
          "internalType": "uint256[]",
          "name": "",
          "type": "uint256[]"
        }
      ],
      "stateMutability": "view",
      "type": "function"
    },
    {
      "inputs": [
        {
          "internalType": "uint256",
          "name": "",
          "type": "uint256"
        }
      ],
      "name": "orders",
      "outputs": [
        {
          "internalType": "uint256",
          "name": "id",
          "type": "uint256"
        },
        {
          "internalType": "uint256",
          "name": "productId",
          "type": "uint256"
        },
        {
          "internalType": "uint256",
          "name": "quantity",
          "type": "uint256"
        },
        {
          "internalType": "uint256",
          "name": "totalAmount",
          "type": "uint256"
        },
        {
          "internalType": "address",
          "name": "buyer",
          "type": "address"
        },
        {
          "internalType": "address",
          "name": "seller",
          "type": "address"
        },
        {
          "internalType": "enum Ecommerce.OrderStatus",
          "name": "status",
          "type": "uint8"
        },
        {
          "internalType": "uint256",
          "name": "createdAt",
          "type": "uint256"
        },
        {
          "internalType": "uint256",
          "name": "updatedAt",
          "type": "uint256"
        }
      ],
      "stateMutability": "view",
      "type": "function"
    },
    {
      "inputs": [],
      "name": "owner",
      "outputs": [
        {
          "internalType": "address",
          "name": "",
          "type": "address"
        }
      ],
      "stateMutability": "view",
      "type": "function"
    },
    {
      "inputs": [
        {
          "internalType": "uint256",
          "name": "",
          "type": "uint256"
        }
      ],
      "name": "products",
      "outputs": [
        {
          "internalType": "uint256",
          "name": "id",
          "type": "uint256"
        },
        {
          "internalType": "string",
          "name": "name",
          "type": "string"
        },
        {
          "internalType": "string",
          "name": "description",
          "type": "string"
        },
        {
          "internalType": "uint256",
          "name": "price",
          "type": "uint256"
        },
        {
          "internalType": "uint256",
          "name": "stock",
          "type": "uint256"
        },
        {
          "internalType": "address",
          "name": "seller",
          "type": "address"
        },
        {
          "internalType": "bool",
          "name": "isActive",
          "type": "bool"
        },
        {
          "internalType": "uint256",
          "name": "createdAt",
          "type": "uint256"
        }
      ],
      "stateMutability": "view",
      "type": "function"
    },
    {
      "inputs": [
        {
          "internalType": "string",
          "name": "name",
          "type": "string"
        }
      ],
      "name": "registerSeller",
      "outputs": [],
      "stateMutability": "nonpayable",
      "type": "function"
    },
    {
      "inputs": [],
      "name": "renounceOwnership",
      "outputs": [],
      "stateMutability": "nonpayable",
      "type": "function"
    },
    {
      "inputs": [
        {
          "internalType": "address",
          "name": "",
          "type": "address"
        },
        {
          "internalType": "uint256",
          "name": "",
          "type": "uint256"
        }
      ],
      "name": "sellerOrders",
      "outputs": [
        {
          "internalType": "uint256",
          "name": "",
          "type": "uint256"
        }
      ],
      "stateMutability": "view",
      "type": "function"
    },
    {
      "inputs": [
        {
          "internalType": "address",
          "name": "",
          "type": "address"
        }
      ],
      "name": "sellers",
      "outputs": [
        {
          "internalType": "address",
          "name": "sellerAddress",
          "type": "address"
        },
        {
          "internalType": "string",
          "name": "name",
          "type": "string"
        },
        {
          "internalType": "uint256",
          "name": "balance",
          "type": "uint256"
        },
        {
          "internalType": "uint256",
          "name": "totalSales",
          "type": "uint256"
        },
        {
          "internalType": "bool",
          "name": "isActive",
          "type": "bool"
        }
      ],
      "stateMutability": "view",
      "type": "function"
    },
    {
      "inputs": [
        {
          "internalType": "uint256",
          "name": "productId",
          "type": "uint256"
        }
      ],
      "name": "toggleProductStatus",
      "outputs": [],
      "stateMutability": "nonpayable",
      "type": "function"
    },
    {
      "inputs": [
        {
          "internalType": "address",
          "name": "sellerAddress",
          "type": "address"
        }
      ],
      "name": "toggleSellerStatus",
      "outputs": [],
      "stateMutability": "nonpayable",
      "type": "function"
    },
    {
      "inputs": [
        {
          "internalType": "address",
          "name": "newOwner",
          "type": "address"
        }
      ],
      "name": "transferOwnership",
      "outputs": [],
      "stateMutability": "nonpayable",
      "type": "function"
    },
    {
      "inputs": [
        {
          "internalType": "uint256",
          "name": "orderId",
          "type": "uint256"
        },
        {
          "internalType": "enum Ecommerce.OrderStatus",
          "name": "newStatus",
          "type": "uint8"
        }
      ],
      "name": "updateOrderStatus",
      "outputs": [],
      "stateMutability": "nonpayable",
      "type": "function"
    },
    {
      "inputs": [
        {
          "internalType": "uint256",
          "name": "productId",
          "type": "uint256"
        },
        {
          "internalType": "string",
          "name": "name",
          "type": "string"
        },
        {
          "internalType": "string",
          "name": "description",
          "type": "string"
        },
        {
          "internalType": "uint256",
          "name": "price",
          "type": "uint256"
        },
        {
          "internalType": "uint256",
          "name": "stock",
          "type": "uint256"
        }
      ],
      "name": "updateProduct",
      "outputs": [],
      "stateMutability": "nonpayable",
      "type": "function"
    },
    {
      "inputs": [],
      "name": "withdrawPlatformFees",
      "outputs": [],
      "stateMutability": "nonpayable",
      "type": "function"
    },
    {
      "inputs": [],
      "name": "withdrawSellerBalance",
      "outputs": [],
      "stateMutability": "nonpayable",
      "type": "function"
    }
  ],
  "bytecode": "0x608060405234801561001057600080fd5b50600160005561001f33610040565b61002d600280546001019055565b61003b600380546001019055565b610092565b600180546001600160a01b038381166001600160a01b0319831681179093556040519116919082907f8be0079c531659141344cd1fd0a4f28419497f9722a3daafe3b4186f6b6457e090600090a35050565b61233880620000a26000396000f3fe6080604052600436106101355760003560e01c806390d16cba116100ab578063c65dc2b31161006f578063c65dc2b3146103f3578063c819998b14610408578063d09ef2411461041d578063d0b7830b14610495578063f2fde38b146104aa578063f94eb182146104ca57600080fd5b806390d16cba146102d3578063a85c38ef146102f3578063aab3196d14610380578063b9db15b4146103a0578063c36ae766146103d357600080fd5b80636d47ab72116100fd5780636d47ab72146101fc578063700db7521461022d578063715018a61461024f57806379109baa146102645780637acc0b20146102775780638da5cb5b146102ab57600080fd5b806327e235e31461013a5780634500cb601461017a57806345cb45051461019a57806360d567ec146101ba57806363b48852146101dc575b600080fd5b34801561014657600080fd5b50610167610155366004611be6565b60096020526000908152604090205481565b6040519081526020015b60405180910390f35b34801561018657600080fd5b50610167610195366004611c08565b6104ea565b3480156101a657600080fd5b506101676101b5366004611c08565b61051b565b3480156101c657600080fd5b506101da6101d5366004611be6565b610537565b005b3480156101e857600080fd5b506101da6101f7366004611cd5565b6105ca565b34801561020857600080fd5b5061021c610217366004611be6565b610703565b604051610171959493929190611d58565b34801561023957600080fd5b506102426107c9565b6040516101719190611d9b565b34801561025b57600080fd5b506101da61082a565b6101da610272366004611ddf565b61083e565b34801561028357600080fd5b50610297610292366004611e01565b610b3f565b604051610171989796959493929190611e1a565b3480156102b757600080fd5b506001546040516001600160a01b039091168152602001610171565b3480156102df57600080fd5b506101da6102ee366004611e7f565b610ca1565b3480156102ff57600080fd5b5061036b61030e366004611e01565b60056020819052600091825260409091208054600182015460028301546003840154600485015495850154600686015460079096015494969395929491936001600160a01b039081169390821692600160a01b90920460ff169189565b60405161017199989796959493929190611f2b565b34801561038c57600080fd5b506101da61039b366004611f84565b610e05565b3480156103ac57600080fd5b506103c06103bb366004611e01565b6111b2565b6040516101719796959493929190611fb8565b3480156103df57600080fd5b506101da6103ee366004611e01565b611339565b3480156103ff57600080fd5b506101da6113a0565b34801561041457600080fd5b506102426114dd565b34801561042957600080fd5b5061036b610438366004611e01565b60009081526005602081905260409091208054600182015460028301546003840154600485015495850154600686015460079096015494979396929591946001600160a01b039384169493821693600160a01b90920460ff169291565b3480156104a157600080fd5b506101da61153c565b3480156104b657600080fd5b506101da6104c5366004611be6565b611630565b3480156104d657600080fd5b506101da6104e5366004612015565b6116a9565b6007602052816000526040600020818154811061050657600080fd5b90600052602060002001600091509150505481565b6008602052816000526040600020818154811061050657600080fd5b61053f611802565b6001600160a01b038181166000908152600660205260409020541661059e5760405162461bcd60e51b815260206004820152601060248201526f14d95b1b195c881b9bdd08199bdd5b9960821b60448201526064015b60405180910390fd5b6001600160a01b03166000908152600660205260409020600401805460ff19811660ff90911615179055565b336000908152600660205260409020546001600160a01b0316156106305760405162461bcd60e51b815260206004820152601960248201527f53656c6c657220616c72656164792072656769737465726564000000000000006044820152606401610595565b6040805160a0810182523380825260208083018581526000848601819052606085018190526001608086018190529381526006909252939020825181546001600160a01b0319166001600160a01b03909116178155925191929190820190610698908261211d565b506040828101516002830155606083015160038301556080909201516004909101805460ff19169115159190911790555133907fecef9454c60fab6a60b6f2aa319263c0f711cdb927c213e76687f7853b597842906106f89084906121dd565b60405180910390a250565b600660205260009081526040902080546001820180546001600160a01b03909216929161072f90612094565b80601f016020809104026020016040519081016040528092919081815260200182805461075b90612094565b80156107a85780601f1061077d576101008083540402835291602001916107a8565b820191906000526020600020905b81548152906001019060200180831161078b57829003601f168201915b50505050600283015460038401546004909401549293909290915060ff1685565b3360009081526008602090815260409182902080548351818402810184019094528084526060939283018282801561082057602002820191906000526020600020905b81548152602001906001019080831161080c575b5050505050905090565b610832611802565b61083c600061185c565b565b6108466118ae565b6000828152600460205260408120548391036108745760405162461bcd60e51b8152600401610595906121f0565b60008381526004602052604090206005810154600160a01b900460ff166108d55760405162461bcd60e51b815260206004820152601560248201527450726f64756374206973206e6f742061637469766560581b6044820152606401610595565b828160040154101561091e5760405162461bcd60e51b8152602060048201526012602482015271496e73756666696369656e742073746f636b60701b6044820152606401610595565b82816003015461092e9190612236565b341461097c5760405162461bcd60e51b815260206004820152601860248201527f496e636f7272656374207061796d656e7420616d6f756e7400000000000000006044820152606401610595565b600061098760035490565b9050610997600380546001019055565b60408051610120810182528281526020808201888152828401888152346060850190815233608086019081526005898101546001600160a01b0390811660a08901908152600060c08a018181524260e08c018190526101008c01528c8252988490529990992088518155955160018701559351600286015591516003850155516004840180549184166001600160a01b03199283161790559551838201805491909316968116871783559351949592949391926001600160a81b031990921690911790600160a01b908490811115610a7157610a71611ef3565b021790555060e08201518160060155610100820151816007015590505083826004016000828254610aa29190612253565b90915550503360008181526007602090815260408083208054600181810183559185528385200186905560058701546001600160a01b031684526008835281842080549182018155845291909220018390555182907f28eb86fd03c9bd96a8a83e4a46ab2ad257b70cea893d98ad6d482e96aa25fad090610b269034815260200190565b60405180910390a3505050610b3b6001600055565b5050565b60046020526000908152604090208054600182018054919291610b6190612094565b80601f0160208091040260200160405190810160405280929190818152602001828054610b8d90612094565b8015610bda5780601f10610baf57610100808354040283529160200191610bda565b820191906000526020600020905b815481529060010190602001808311610bbd57829003601f168201915b505050505090806002018054610bef90612094565b80601f0160208091040260200160405190810160405280929190818152602001828054610c1b90612094565b8015610c685780601f10610c3d57610100808354040283529160200191610c68565b820191906000526020600020905b815481529060010190602001808311610c4b57829003601f168201915b50505050600383015460048401546005850154600690950154939491939092506001600160a01b03821691600160a01b900460ff169088565b3360009081526006602052604090206004015460ff16610cd35760405162461bcd60e51b815260040161059590612266565b6000610cde60025490565b9050610cee600280546001019055565b6040805161010081018252828152602080820188815282840188905260608301879052608083018690523360a0840152600160c084018190524260e085015260008681526004909352939091208251815590519192909190820190610d53908261211d565b5060408201516002820190610d68908261211d565b50606082015160038201556080820151600482015560a082015160058201805460c08501511515600160a01b026001600160a81b03199091166001600160a01b039093169290921791909117905560e09091015160069091015560405181907f418d4005ee80a6584eef7f51de08850f7f79c3e7b464f15ef3f236423d964b0890610df6908890879061229d565b60405180910390a25050505050565b600082815260056020526040812054839103610e5a5760405162461bcd60e51b815260206004820152601460248201527313dc99195c88191bd95cc81b9bdd08195e1a5cdd60621b6044820152606401610595565b6000838152600560208190526040909120908101546001600160a01b0316331480610e91575060048101546001600160a01b031633145b610edd5760405162461bcd60e51b815260206004820152601e60248201527f4e6f7420617574686f72697a656420746f20757064617465206f7264657200006044820152606401610595565b60058101546001600160a01b0316330361101a576000600582810154600160a01b900460ff1690811115610f1357610f13611ef3565b148015610f3157506001836005811115610f2f57610f2f611ef3565b145b80610f7757506001600582810154600160a01b900460ff1690811115610f5957610f59611ef3565b148015610f7757506002836005811115610f7557610f75611ef3565b145b80610fbd57506002600582810154600160a01b900460ff1690811115610f9f57610f9f611ef3565b148015610fbd57506003836005811115610fbb57610fbb611ef3565b145b6110155760405162461bcd60e51b8152602060048201526024808201527f496e76616c696420737461747573207472616e736974696f6e20666f72207365604482015263363632b960e11b6064820152608401610595565b6110f8565b6000600582810154600160a01b900460ff169081111561103c5761103c611ef3565b14801561105a5750600483600581111561105857611058611ef3565b145b806110a057506003600582810154600160a01b900460ff169081111561108257611082611ef3565b1480156110a05750600583600581111561109e5761109e611ef3565b145b6110f85760405162461bcd60e51b815260206004820152602360248201527f496e76616c696420737461747573207472616e736974696f6e20666f722062756044820152623cb2b960e91b6064820152608401610595565b828160050160146101000a81548160ff0219169083600581111561111e5761111e611ef3565b021790555042600782015560405184907f15fe7663e318fda785235fa9e39aa6923ffd39fe53631991197fb842f34f6ba99061115b9086906122bf565b60405180910390a2600383600581111561117757611177611ef3565b0361118a5761118584611907565b6111ac565b600583600581111561119e5761119e611ef3565b036111ac576111ac84611a64565b50505050565b6000818152600460208190526040822080546003820154928201546005830154600184018054606096879689968796879687969395929460028701939092916001600160a01b03811691600160a01b90910460ff1690869061121390612094565b80601f016020809104026020016040519081016040528092919081815260200182805461123f90612094565b801561128c5780601f106112615761010080835404028352916020019161128c565b820191906000526020600020905b81548152906001019060200180831161126f57829003601f168201915b5050505050955084805461129f90612094565b80601f01602080910402602001604051908101604052809291908181526020018280546112cb90612094565b80156113185780601f106112ed57610100808354040283529160200191611318565b820191906000526020600020905b8154815290600101906020018083116112fb57829003601f168201915b50505050509450975097509750975097509750975050919395979092949650565b611341611802565b60008181526004602052604081205482910361136f5760405162461bcd60e51b8152600401610595906121f0565b506000908152600460205260409020600501805460ff60a01b198116600160a01b9182900460ff1615909102179055565b3360009081526006602052604090206004015460ff166113d25760405162461bcd60e51b815260040161059590612266565b6113da6118ae565b33600090815260066020526040902060020154806114335760405162461bcd60e51b81526020600482015260166024820152754e6f2062616c616e636520746f20776974686472617760501b6044820152606401610595565b336000818152600660205260408082206002018290555190919083908381818185875af1925050503d8060008114611487576040519150601f19603f3d011682016040523d82523d6000602084013e61148c565b606091505b50509050806114d15760405162461bcd60e51b815260206004820152601160248201527015da5d1a191c985dd85b0819985a5b1959607a1b6044820152606401610595565b505061083c6001600055565b33600090815260076020908152604091829020805483518184028101840190945280845260609392830182828015610820576020028201919060005260206000209081548152602001906001019080831161080c575050505050905090565b611544611802565b47806115885760405162461bcd60e51b81526020600482015260136024820152724e6f206665657320746f20776974686472617760681b6044820152606401610595565b600061159c6001546001600160a01b031690565b6001600160a01b03168260405160006040518083038185875af1925050503d80600081146115e6576040519150601f19603f3d011682016040523d82523d6000602084013e6115eb565b606091505b5050905080610b3b5760405162461bcd60e51b815260206004820152601160248201527015da5d1a191c985dd85b0819985a5b1959607a1b6044820152606401610595565b611638611802565b6001600160a01b03811661169d5760405162461bcd60e51b815260206004820152602660248201527f4f776e61626c653a206e6577206f776e657220697320746865207a65726f206160448201526564647265737360d01b6064820152608401610595565b6116a68161185c565b50565b3360009081526006602052604090206004015460ff166116db5760405162461bcd60e51b815260040161059590612266565b6000858152600460205260408120548691036117095760405162461bcd60e51b8152600401610595906121f0565b6000868152600460205260409020600501546001600160a01b0316331461176b5760405162461bcd60e51b81526020600482015260166024820152752737ba103a343290383937b23ab1ba1039b2b63632b960511b6044820152606401610595565b6000868152600460205260409020600101611786868261211d565b5060008681526004602052604090206002016117a2858261211d565b5060008681526004602081905260409182902060038101869055018390555186907ff9b1d9170fbe32752353e00d62e5276b143166c75aa974030dddfac2895601fe906117f2908890879061229d565b60405180910390a2505050505050565b6001546001600160a01b0316331461083c5760405162461bcd60e51b815260206004820181905260248201527f4f776e61626c653a2063616c6c6572206973206e6f7420746865206f776e65726044820152606401610595565b600180546001600160a01b038381166001600160a01b0319831681179093556040519116919082907f8be0079c531659141344cd1fd0a4f28419497f9722a3daafe3b4186f6b6457e090600090a35050565b6002600054036119005760405162461bcd60e51b815260206004820152601f60248201527f5265656e7472616e637947756172643a207265656e7472616e742063616c6c006044820152606401610595565b6002600055565b60008181526005602052604090206003600582810154600160a01b900460ff169081111561193757611937611ef3565b1461197a5760405162461bcd60e51b815260206004820152601360248201527213dc99195c881b9bdd0819195b1a5d995c9959606a1b6044820152606401610595565b60038101546000606461198e836002612236565b61199891906122cd565b90506119a48183612253565b60058401546001600160a01b0316600090815260066020526040812060020180549091906119d39084906122ef565b909155505060038084015460058501546001600160a01b03166000908152600660205260408120909201805491929091611a0e9084906122ef565b909155505060058301546001600160a01b0316847f21d71db5be59bb9fa133895586b7404307dd33fb93b16db09dc6f1d9d7d231b0611a4d8486612253565b60405190815260200160405180910390a350505050565b600081815260056020819052604090912090600582810154600160a01b900460ff1690811115611a9657611a96611ef3565b14611ad85760405162461bcd60e51b815260206004820152601260248201527113dc99195c881b9bdd081c99599d5b99195960721b6044820152606401610595565b600481015460038201546040516000926001600160a01b031691908381818185875af1925050503d8060008114611b2b576040519150601f19603f3d011682016040523d82523d6000602084013e611b30565b606091505b5050905080611b7a5760405162461bcd60e51b81526020600482015260166024820152751499599d5b99081d1c985b9cd9995c8819985a5b195960521b6044820152606401610595565b600482015460038301546040519081526001600160a01b039091169084907f7a482fdeb6bc9a1376f597068a214a7a39472bb2eff1b8cad21ba04f49ddca1b9060200160405180910390a3505050565b80356001600160a01b0381168114611be157600080fd5b919050565b600060208284031215611bf857600080fd5b611c0182611bca565b9392505050565b60008060408385031215611c1b57600080fd5b611c2483611bca565b946020939093013593505050565b634e487b7160e01b600052604160045260246000fd5b600082601f830112611c5957600080fd5b813567ffffffffffffffff80821115611c7457611c74611c32565b604051601f8301601f19908116603f01168101908282118183101715611c9c57611c9c611c32565b81604052838152866020858801011115611cb557600080fd5b836020870160208301376000602085830101528094505050505092915050565b600060208284031215611ce757600080fd5b813567ffffffffffffffff811115611cfe57600080fd5b611d0a84828501611c48565b949350505050565b6000815180845260005b81811015611d3857602081850181015186830182015201611d1c565b506000602082860101526020601f19601f83011685010191505092915050565b6001600160a01b038616815260a060208201819052600090611d7c90830187611d12565b6040830195909552506060810192909252151560809091015292915050565b6020808252825182820181905260009190848201906040850190845b81811015611dd357835183529284019291840191600101611db7565b50909695505050505050565b60008060408385031215611df257600080fd5b50508035926020909101359150565b600060208284031215611e1357600080fd5b5035919050565b60006101008a8352806020840152611e348184018b611d12565b90508281036040840152611e48818a611d12565b6060840198909852505060808101949094526001600160a01b039290921660a0840152151560c083015260e0909101529392505050565b60008060008060808587031215611e9557600080fd5b843567ffffffffffffffff80821115611ead57600080fd5b611eb988838901611c48565b95506020870135915080821115611ecf57600080fd5b50611edc87828801611c48565b949794965050505060408301359260600135919050565b634e487b7160e01b600052602160045260246000fd5b60068110611f2757634e487b7160e01b600052602160045260246000fd5b9052565b8981526020810189905260408101889052606081018790526001600160a01b038681166080830152851660a08201526101208101611f6c60c0830186611f09565b60e08201939093526101000152979650505050505050565b60008060408385031215611f9757600080fd5b82359150602083013560068110611fad57600080fd5b809150509250929050565b87815260e060208201526000611fd160e0830189611d12565b8281036040840152611fe38189611d12565b6060840197909752505060808101939093526001600160a01b039190911660a0830152151560c0909101529392505050565b600080600080600060a0868803121561202d57600080fd5b85359450602086013567ffffffffffffffff8082111561204c57600080fd5b61205889838a01611c48565b9550604088013591508082111561206e57600080fd5b5061207b88828901611c48565b9598949750949560608101359550608001359392505050565b600181811c908216806120a857607f821691505b6020821081036120c857634e487b7160e01b600052602260045260246000fd5b50919050565b601f82111561211857600081815260208120601f850160051c810160208610156120f55750805b601f850160051c820191505b8181101561211457828155600101612101565b5050505b505050565b815167ffffffffffffffff81111561213757612137611c32565b61214b816121458454612094565b846120ce565b602080601f83116001811461218057600084156121685750858301515b600019600386901b1c1916600185901b178555612114565b600085815260208120601f198616915b828110156121af57888601518255948401946001909101908401612190565b50858210156121cd5787850151600019600388901b60f8161c191681555b5050505050600190811b01905550565b602081526000611c016020830184611d12565b602080825260169082015275141c9bd91d58dd08191bd95cc81b9bdd08195e1a5cdd60521b604082015260600190565b634e487b7160e01b600052601160045260246000fd5b808202811582820484141761224d5761224d612220565b92915050565b8181038181111561224d5761224d612220565b60208082526017908201527f4e6f74206120726567697374657265642073656c6c6572000000000000000000604082015260600190565b6040815260006122b06040830185611d12565b90508260208301529392505050565b6020810161224d8284611f09565b6000826122ea57634e487b7160e01b600052601260045260246000fd5b500490565b8082018082111561224d5761224d61222056fea2646970667358221220a3f65b48342bea6cb4ffe7d0e6f5b41d30d6016a60dbbf8587cfd6f46d62a13664736f6c63430008130033",
  "linkReferences": {},
  "deployedLinkReferences": {}
}